{
  "_format": "hh-sol-artifact-1",
  "contractName": "ToDo",
  "sourceName": "contracts/ToDo.sol",
  "abi": [
    {
      "inputs": [],
      "stateMutability": "nonpayable",
      "type": "constructor"
    },
    {
      "anonymous": false,
      "inputs": [
        {
          "indexed": true,
          "internalType": "address",
          "name": "from",
          "type": "address"
        },
        {
          "indexed": false,
          "internalType": "uint256",
          "name": "timestamp",
          "type": "uint256"
        },
        {
          "indexed": false,
          "internalType": "string",
          "name": "task",
          "type": "string"
        },
        {
          "indexed": false,
          "internalType": "bool",
          "name": "isDone",
          "type": "bool"
        }
      ],
      "name": "NewTask",
      "type": "event"
    },
    {
      "inputs": [
        {
          "internalType": "string",
          "name": "_task",
          "type": "string"
        }
      ],
      "name": "addTask",
      "outputs": [],
      "stateMutability": "nonpayable",
      "type": "function"
    },
    {
      "inputs": [
        {
          "internalType": "uint256",
          "name": "_taskIndex",
          "type": "uint256"
        }
      ],
      "name": "deleteTask",
      "outputs": [],
      "stateMutability": "nonpayable",
      "type": "function"
    },
    {
      "inputs": [
        {
          "internalType": "uint256",
          "name": "_taskIndex",
          "type": "uint256"
        }
      ],
      "name": "getTask",
      "outputs": [
        {
          "components": [
            {
              "internalType": "string",
              "name": "task",
              "type": "string"
            },
            {
              "internalType": "bool",
              "name": "isDone",
              "type": "bool"
            },
            {
              "internalType": "uint256",
              "name": "timestamp",
              "type": "uint256"
            }
          ],
          "internalType": "struct ToDo.Task",
          "name": "",
          "type": "tuple"
        }
      ],
      "stateMutability": "view",
      "type": "function"
    },
    {
      "inputs": [],
      "name": "getTasks",
      "outputs": [
        {
          "components": [
            {
              "internalType": "string",
              "name": "task",
              "type": "string"
            },
            {
              "internalType": "bool",
              "name": "isDone",
              "type": "bool"
            },
            {
              "internalType": "uint256",
              "name": "timestamp",
              "type": "uint256"
            }
          ],
          "internalType": "struct ToDo.Task[]",
          "name": "",
          "type": "tuple[]"
        }
      ],
      "stateMutability": "view",
      "type": "function"
    },
    {
      "inputs": [
        {
          "internalType": "uint256",
          "name": "_taskIndex",
          "type": "uint256"
        },
        {
          "internalType": "bool",
          "name": "_status",
          "type": "bool"
        }
      ],
      "name": "updateStatus",
      "outputs": [],
      "stateMutability": "nonpayable",
      "type": "function"
    }
  ],
  "bytecode": "0x608060405234801561001057600080fd5b50610cf8806100206000396000f3fe608060405234801561001057600080fd5b50600436106100575760003560e01c806304a87e381461005c5780631d65e77e1461007a578063387008c2146100aa578063560f3192146100c657806367238562146100e2575b600080fd5b6100646100fe565b60405161007191906108a1565b60405180910390f35b610094600480360381019061008f9190610903565b610250565b6040516100a19190610980565b60405180910390f35b6100c460048036038101906100bf91906109ce565b610385565b005b6100e060048036038101906100db9190610903565b610402565b005b6100fc60048036038101906100f79190610b43565b610492565b005b60606000803373ffffffffffffffffffffffffffffffffffffffff1673ffffffffffffffffffffffffffffffffffffffff168152602001908152602001600020805480602002602001604051908101604052809291908181526020016000905b82821015610247578382906000526020600020906003020160405180606001604052908160008201805461019190610bbb565b80601f01602080910402602001604051908101604052809291908181526020018280546101bd90610bbb565b801561020a5780601f106101df5761010080835404028352916020019161020a565b820191906000526020600020905b8154815290600101906020018083116101ed57829003601f168201915b505050505081526020016001820160009054906101000a900460ff161515151581526020016002820154815250508152602001906001019061015e565b50505050905090565b6102586105bc565b60008060003373ffffffffffffffffffffffffffffffffffffffff1673ffffffffffffffffffffffffffffffffffffffff16815260200190815260200160002083815481106102aa576102a9610bed565b5b90600052602060002090600302019050806040518060600160405290816000820180546102d690610bbb565b80601f016020809104026020016040519081016040528092919081815260200182805461030290610bbb565b801561034f5780601f106103245761010080835404028352916020019161034f565b820191906000526020600020905b81548152906001019060200180831161033257829003601f168201915b505050505081526020016001820160009054906101000a900460ff16151515158152602001600282015481525050915050919050565b806000803373ffffffffffffffffffffffffffffffffffffffff1673ffffffffffffffffffffffffffffffffffffffff16815260200190815260200160002083815481106103d6576103d5610bed565b5b906000526020600020906003020160010160006101000a81548160ff0219169083151502179055505050565b6000803373ffffffffffffffffffffffffffffffffffffffff1673ffffffffffffffffffffffffffffffffffffffff168152602001908152602001600020818154811061045257610451610bed565b5b90600052602060002090600302016000808201600061047191906105df565b6001820160006101000a81549060ff02191690556002820160009055505050565b600060405180606001604052808381526020016000151581526020014281525090506000803373ffffffffffffffffffffffffffffffffffffffff1673ffffffffffffffffffffffffffffffffffffffff168152602001908152602001600020819080600181540180825580915050600190039060005260206000209060030201600090919091909150600082015181600001908051906020019061053892919061061f565b5060208201518160010160006101000a81548160ff0219169083151502179055506040820151816002015550503373ffffffffffffffffffffffffffffffffffffffff167fd075575f6f4cbedae515f1ea9576aae5346e6ef76aa941e856101c686b938b5d428460006040516105b093929190610c84565b60405180910390a25050565b604051806060016040528060608152602001600015158152602001600081525090565b5080546105eb90610bbb565b6000825580601f106105fd575061061c565b601f01602090049060005260206000209081019061061b91906106a5565b5b50565b82805461062b90610bbb565b90600052602060002090601f01602090048101928261064d5760008555610694565b82601f1061066657805160ff1916838001178555610694565b82800160010185558215610694579182015b82811115610693578251825591602001919060010190610678565b5b5090506106a191906106a5565b5090565b5b808211156106be5760008160009055506001016106a6565b5090565b600081519050919050565b600082825260208201905092915050565b6000819050602082019050919050565b600081519050919050565b600082825260208201905092915050565b60005b8381101561072857808201518184015260208101905061070d565b83811115610737576000848401525b50505050565b6000601f19601f8301169050919050565b6000610759826106ee565b61076381856106f9565b935061077381856020860161070a565b61077c8161073d565b840191505092915050565b60008115159050919050565b61079c81610787565b82525050565b6000819050919050565b6107b5816107a2565b82525050565b600060608301600083015184820360008601526107d8828261074e565b91505060208301516107ed6020860182610793565b50604083015161080060408601826107ac565b508091505092915050565b600061081783836107bb565b905092915050565b6000602082019050919050565b6000610837826106c2565b61084181856106cd565b935083602082028501610853856106de565b8060005b8581101561088f5784840389528151610870858261080b565b945061087b8361081f565b925060208a01995050600181019050610857565b50829750879550505050505092915050565b600060208201905081810360008301526108bb818461082c565b905092915050565b6000604051905090565b600080fd5b600080fd5b6108e0816107a2565b81146108eb57600080fd5b50565b6000813590506108fd816108d7565b92915050565b600060208284031215610919576109186108cd565b5b6000610927848285016108ee565b91505092915050565b6000606083016000830151848203600086015261094d828261074e565b91505060208301516109626020860182610793565b50604083015161097560408601826107ac565b508091505092915050565b6000602082019050818103600083015261099a8184610930565b905092915050565b6109ab81610787565b81146109b657600080fd5b50565b6000813590506109c8816109a2565b92915050565b600080604083850312156109e5576109e46108cd565b5b60006109f3858286016108ee565b9250506020610a04858286016109b9565b9150509250929050565b600080fd5b600080fd5b7f4e487b7100000000000000000000000000000000000000000000000000000000600052604160045260246000fd5b610a508261073d565b810181811067ffffffffffffffff82111715610a6f57610a6e610a18565b5b80604052505050565b6000610a826108c3565b9050610a8e8282610a47565b919050565b600067ffffffffffffffff821115610aae57610aad610a18565b5b610ab78261073d565b9050602081019050919050565b82818337600083830152505050565b6000610ae6610ae184610a93565b610a78565b905082815260208101848484011115610b0257610b01610a13565b5b610b0d848285610ac4565b509392505050565b600082601f830112610b2a57610b29610a0e565b5b8135610b3a848260208601610ad3565b91505092915050565b600060208284031215610b5957610b586108cd565b5b600082013567ffffffffffffffff811115610b7757610b766108d2565b5b610b8384828501610b15565b91505092915050565b7f4e487b7100000000000000000000000000000000000000000000000000000000600052602260045260246000fd5b60006002820490506001821680610bd357607f821691505b60208210811415610be757610be6610b8c565b5b50919050565b7f4e487b7100000000000000000000000000000000000000000000000000000000600052603260045260246000fd5b610c25816107a2565b82525050565b600082825260208201905092915050565b6000610c47826106ee565b610c518185610c2b565b9350610c6181856020860161070a565b610c6a8161073d565b840191505092915050565b610c7e81610787565b82525050565b6000606082019050610c996000830186610c1c565b8181036020830152610cab8185610c3c565b9050610cba6040830184610c75565b94935050505056fea26469706673582212205d5e6d94c5d5b3ac25d8fc9258063c69a17acaa9a907a524e10d13828bf6a22564736f6c63430008090033",
  "linkReferences": {},
  "deployedLinkReferences": {}
}